:020000040800F2
:1000000008050020450100084D0100084F010008C7
:1000100051010008530100085501000800000000CC
:100020000000000000000000000000005701000870
:1000300059010008000000005B0100085D01000894
:100040005F0100085F0100085F0100085F01000810
:100050005F0100085F0100085F0100085F01000800
:100060005F010008E10400085F0100085F0100086B
:100070005F0100085F0100085F0100085F010008E0
:100080005F0100085F0100085F0100085F010008D0
:100090005F0100085F0100085F0100085F010008C0
:1000A0005F010008551100085F0100085F010008AA
:1000B0005F010008E11100080D1200085F0100084F
:1000C0005F0100085F0100085F0100085F01000890
:1000D0005F0100085F0100085F0100085F01000880
:1000E0006D0400085F0100085F0100085F0100085F
:1000F0005F0100085F0100085F0100085F01000860
:100100005F0100085F010008391200085F01000864
:100110005F0100085F0100085F0100085F0100083F
:100120005F0100085F0100085F0100085F0100082F
:10013000DFF80CD000F02EF80048004759180008EE
:10014000080500200648804706480047FEE7FEE70E
:10015000FEE7FEE7FEE7FEE7FEE7FEE7FEE7FEE777
:10016000F51000083101000830B50B4601460020AB
:100170002022012409E021FA02F59D4205D303FA69
:1001800002F5491B04FA02F52844151EA2F10102EA
:10019000F1DC30BD064C074D06E0E06840F001039D
:1001A00094E8070098471034AC42F6D3FFF7C4FF39
:1001B000C83E0008E83E000808B516480068401C24
:1001C0001449086014480068144908601448096814
:1001D00050F821001349144A126841F822001348CC
:1001E0000E49096850F8211011480F4A126840F86A
:1001F000221010480E4A0C4B00901B6852F8231036
:10020000084A094B1B6852F823000A231A4600F0DB
:10021000C9F908BD840000208C000020880000205F
:1002200044000020C80000201800002054000020D6
:10023000D8000020082300083E4801683E480068B6
:100240000A30814217DA3B4800680A303A490968A7
:10025000884210DD39480168394800680A30814217
:1002600009DA364800680A3035490968884202DDF3
:100270000120344908702F4841682F4800680A302F
:10028000814217DA2B4840680A302B4909688842B6
:1002900010DD2A4841682A4800680A30814209DA9C
:1002A000264840680A3026490968884202DD012054
:1002B000244908701F4881681F4800680A3081423D
:1002C00017DA1C4880680A301B490968884210DD2B
:1002D0001A4881681A4800680A30814209DA1748CA
:1002E00080680A3016490968884202DD01201549F4
:1002F00008701048C168104800680A30814217DA57
:100300000C48C0680A300C490968884210DD0B4867
:10031000C1680B4800680A30814209DA0748C068A2
:100320000A3007490968884202DD01200549087042
:1003300070470000C800002074000020D800002092
:10034000780000203C0000202C48007801280CD1C7
:100350002B480068012808D12A480068002804DDDD
:1003600028480068401E2749086024480078012872
:100370000DD123480068022809D122480068B0F551
:100380009B7F04DA1F480068401C1E4908601B4818
:10039000007801280CD11A480068032808D11A48AF
:1003A0000068102804DD18480068401E16490860DF
:1003B0001248007801280CD111480068042808D19F
:1003C00011480068E62804DA0F480068401C0E490E
:1003D00008600C48006800280CDB0A480068B0F58B
:1003E0009B7F07DC08480068002803DB064800689C
:1003F000E62802DD00200149087070473400002023
:1004000030000020740000207800002008B511485A
:100410000068012813D110480068401E00EBC0019D
:1004200001EB00100D4901EBC0000A231A460090B1
:100430000B4801680B48006800F0B4F809E00A486E
:100440000A231A460090064801680648006800F032
:10045000A9F808BD3800002030000020581E000810
:100460007800002074000020C81C000819480068AB
:1004700000F4804050B11748006840F480401549AE
:100480000860012014490860144908701148006888
:1004900000F4004058B10F48006840F400400D4996
:1004A000086003200C49086001200C4908700948C5
:1004B000006800F4005058B10648006840F400504D
:1004C00004490860022004490860012003490870BB
:1004D0007047000014040140300000203400002068
:1004E0000848006800F0080058B10648006840F06D
:1004F00008000449086004200349086001200349FA
:1005000008707047140401403000002034000020BF
:100510001448806940F480701249886108468069F7
:1005200040F0200088610846806940F0040088613E
:100530000846806940F4006088610846C06940F060
:100540000200C8610846C06940F00400C86108465E
:10055000C06940F00800C8610846806940F00100A9
:10056000886170470010024010B5F0234FF4A0726C
:100570000021084600F042FC222001F08FFB00BF62
:1005800000BF002404E00648008801F08FFB641CD3
:10059000B4F5963FF7D300BF00BF002010BD0000A8
:1005A000AA0000202DE9F05F8046894614461F46C8
:1005B000DDF828A0D3463B4622464946404600F097
:1005C0001DFC222001F06AFB00BF00BF781E00FB6B
:1005D00004F50AE0002605E0A9193BF8110001F036
:1005E00065FB761CA642F7D32D1B002DF2DA00BF67
:1005F00000BF0020BDE8F09F2DE9F04781468A4604
:1006000016462E48006818B94FF0FF30BDE8F08755
:100610002A4800684068361A284909680988C81DB0
:10062000C11700EB51714FEAE10824480068C16826
:1006300006FB08F0214A1268528800FB02151F4889
:10064000006843881D48006802885146484600F00B
:10065000D5FB222001F022FB00BF00BF002723E0D2
:1006600000241AE0297804F00702114101F0010189
:1006700011B11349098801E012490988084601F0BF
:1006800015FB04F00700072806D10C480068008815
:10069000401EA04200D06D1C641C08480068008801
:1006A000A042DFD86D1C7F1C044800684088B84217
:1006B000D6D800BF00BF0020A8E70000AC00002093
:1006C000A8000020AA00002070B505460E4614467A
:1006D000012322463146284600F090FB222001F0FB
:1006E000DDFA00BF00BF03E00548008801F0DEFA34
:1006F000201EA4F10104F7D100BF00BF70BD0000AF
:10070000A800002070B505460E46144609E014F80E
:10071000012B31462846FFF76FFF04480068008828
:10072000054420780028F2D170BD0000AC00002004
:1007300070B505460E46144623460122314628462A
:1007400000F05CFB222001F0A9FA00BF00BF03E02B
:100750000548008801F0AAFA201EA4F10104F7D18F
:1007600000BF00BF70BD0000A800002010B5044607
:10077000F0234FF4A0720021084600F03FFB002157
:10078000202001F097FA0021212001F093FA222085
:1007900001F084FA002010BD70B5FE48806940F277
:1007A000ED110843FB498861FB48006800F0FF2415
:1007B00044F0BB10F8490860081D0068F74900EADA
:1007C0000104F7482043F449091D0860F548006812
:1007D00020F0704444F03040F24908604FF0BB30E4
:1007E000091D0860F048006820F00F0444F00B0079
:1007F000ED490860ED484068ED4900EA0104ED4824
:100800002043EA494860EC480068EB490860EA4840
:100810001038006820F00F0444F00300E649103956
:100820000860DC48406940F48070DA49486140F271
:1008300005404107C86141F211208861322000F073
:10084000FFFE0026304601F029FA01F023FA0546A2
:10085000472D7DD10120D94908700021EA2001F0FF
:1008600029FA2021EB2001F025FA0C21EC2001F0DF
:1008700021FAC721ED2001F01DFA3821E82001F00E
:1008800019FA1021E92001F015FA0121F12001F0F7
:1008900011FA1021F22001F00DFA0121402001F09F
:1008A00009FA0021412001F005FA0021422001F05F
:1008B00001FA1021432001F0FDF90E21442001F03E
:1008C000F9F92421452001F0F5F90421462001F031
:1008D000F1F95021472001F0EDF90221482001F003
:1008E000E9F91321492001F0E5F919214A2001F025
:1008F000E1F919214B2001F0DDF916214C2001F01E
:10090000D9F91B21502001F0D5F93121512001F0F6
:10091000D1F92F21522001F0CDF93F21532001F0D0
:10092000C9F93F21542001F0C5F93E21552001F0BD
:10093000C1F92F21562001F0BDF97B21572001F08C
:10094000B9F90921582001F0B5F90621592000E034
:1009500089E001F0AFF906215A2001F0ABF90C2132
:100960005B2001F0A7F91D215C2001F0A3F9CC2147
:100970005D2001F09FF91B21084601F09BF9012140
:100980001A2001F097F92F21242001F093F9572123
:10099000252001F08FF98821232001F08BF93621E1
:1009A000182001F087F90121192001F083F90021B5
:1009B000012001F07FF988211F2001F07BF9C82078
:1009C00000F03EFE82211F2001F074F9322000F079
:1009D00037FE92211F2001F06DF9322000F030FE29
:1009E000D2211F2001F066F9322000F029FE5521A6
:1009F000172001F05FF90021084601F05BF9112191
:100A00002F2001F057F90021312001F053F9002186
:100A1000322001F04FF93821282001F04BF9C8208D
:100A200000F00EFE3C21282001F044F9A8211620F8
:100A300001F040F900210E2001F03CF900210F20C7
:100A400001F038F90121102001F034F94021112082
:100A500001F030F90021122001F02CF900211320BF
:100A600001F028F9A9E10020544908704FF4807181
:100A7000012001F01FF94FF4E061022001F01AF9A2
:100A80000021042001F016F940F20721082001F0AE
:100A900011F90021092001F00DF900210A2001F0CF
:100AA00009F900210C2001F005F900210D2001F0C9
:100AB00001F900210F2001F0FDF80021102001F0C4
:100AC000F9F80021112001F0F5F80021122001F0C1
:100AD000F1F80021132001F0EDF8C82000F0B0FD7E
:100AE00041F2B021102001F0E5F80721112001F0BA
:100AF000E1F8322000F0A4FD40F2BD11122001F017
:100B0000D9F8322000F09CFD4FF4A051132001F0E1
:100B1000D1F80E21292001F0CDF8322000F090FD0F
:100B20000021202001F0C6F80021212001F0C2F8A8
:100B3000A5F5A840083838B1A0F57C501838002831
:100B40007DD005287CD167E040F60D31302001F0E2
:100B5000B1F841F62311312001F0ACF841F62641FD
:100B6000322001F0A7F842F21C61332001F0A2F814
:100B700042F21941342001F09DF840F60B51352026
:100B800001F098F841F20601362001F093F84FF495
:100B9000C26115E0001002400014014000F0FF00A7
:100BA000BB0B00BB00180140001C014000200140AD
:100BB000FFF0F0FF000B0B0014080140B000002014
:100BC000372001F077F840F20671382001F072F812
:100BD0004FF44171392001F06DF840F605613A207B
:100BE00001F068F840F601613B2001F063F84FF432
:100BF00087713C2001F05EF840F20E513D2001F07B
:100C000059F840F203413E2001F054F840F20761E8
:100C10003F2001F04FF861E00021302001F04AF858
:100C200040F20761312001F045F840F205313220F1
:100C300001F040F80021352001F03CF801E01DE012
:100C40001BE041F20461362001F034F84FF40171E9
:100C5000372001F02FF80121382001F02BF840F265
:100C60000771392001F026F800213C2001F022F81C
:100C70000F213D2001F01EF830E000BF062130209A
:100C800001F018F840F20111312001F013F80321AE
:100C9000322001F00FF84FF48371352001F00AF88B
:100CA00040F60231362001F005F840F202313720DB
:100CB00001F000F840F20771382000F0FBFF072137
:100CC000392000F0F7FF4FF4C0613C2000F0F2FF44
:100CD00040F20B213D2000F0EDFF00BF00BF0021DE
:100CE000502000F0E7FFEF21512000F0E3FF00214A
:100CF000522000F0DFFF40F23F11532000F0DAFFF6
:100D0000A5F5A840083830B1A0F57C50183850B18E
:100D1000052807D100E000BF4FF41C51602000F00F
:100D2000C9FF06E000BF4FF42741602000F0C2FF7A
:100D300000BF00BF0121612000F0BCFF00216A203C
:100D400000F0B8FF0021802000F0B4FF00218120D6
:100D500000F0B0FF0021822000F0ACFF00218320D2
:100D600000F0A8FF0021842000F0A4FF00218520CE
:100D700000F0A0FF1021902000F09CFF00219220A5
:100D800000F098FF0321932000F094FF4FF4887146
:100D9000952000F08FFF0021972000F08BFF0021AD
:100DA000982000F087FF41F23801032000F082FF15
:100DB00040F23711072000F07DFF4FF480700249A8
:100DC0000860002070BD0000100801400146024A82
:100DD0001180002070470000AA0000200146024850
:100DE0000160002070470000AC0000200146024A6C
:100DF0001180002070470000A80000202DE9F04776
:100E000004460D4616461F462648007860B3A019D2
:100E1000A0F10108E819A0F10109C4F30F21022093
:100E200000F048FFE1B2032000F044FFC8F30F21B7
:100E3000042000F03FFF08F0FF01052000F03AFF1A
:100E4000C5F30F21062000F035FFE9B2072000F0BE
:100E500031FFC9F30F21082000F02CFF09F0FF013A
:100E6000092000F027FF1BE0A9B2502000F022FF6C
:100E7000E819401E81B2512000F01CFFA1B252209F
:100E800000F018FFA019401E81B2532000F012FF9D
:100E9000A9B2202000F00EFFA1B2212000F00AFF2D
:100EA000BDE8F087B00000201848406818490843A2
:100EB000164948601748006840F4804015490860AA
:100EC0001548006820F4702014490860084600683E
:100ED00040F44030104908600C48806800F48040BD
:100EE0000F4908600948806800F400500D49086007
:100EF0000648806800F400400B4908600548083047
:100F0000006800F0080009490860704700200140AF
:100F10000000404400140140000801402C00002063
:100F2000980000209C000020A0000020A4000020C9
:100F30001A4951F820101A4A1268914216D11949DB
:100F400051F82010184A1268914207DA154951F8F1
:100F50002010491C134A42F820101DE0114951F895
:100F60002010491E0F4A42F8201015E00B4951F895
:100F700020100B4A1268914207DA084951F82010F4
:100F8000491C064A42F8201006E0044951F8201096
:100F9000491E024A42F8201070470000C800002095
:100FA0006C000020D8000020700000200648006877
:100FB000042803D101200449086004E002480068C5
:100FC000401C0149086070478C0000200D480068F3
:100FD000B0F59B7F03DD00200A49086004E0094862
:100FE0000068401C0749086007480068E62803DDE0
:100FF00010200549086004E003480068401C0249CD
:1010000008607047640000206800002010B500F000
:1010100001F810BD0CB50020019000903348006825
:1010200040F480303149086000BF3048006800F467
:10103000003000900198401C0190009818B9019868
:10104000B0F5A06FF1D12948006800F4003010B16C
:101050000120009001E0002000900098012843D179
:101060002348006840F010002149086008460068E5
:1010700020F0030008600846006840F002000860A5
:101080001A48406819494860084640684860084660
:10109000406840F4806048600846406820F47C1056
:1010A00048600846406840F4E81048600846006818
:1010B00040F08070086000BF0C48006800F00070CD
:1010C0000028F9D00948406820F00300074948602B
:1010D0000846406840F00200486000BF034840688E
:1010E00000F00C000828F9D10CBD000000100240EF
:1010F0000020024010B51348006840F0010011497B
:10110000086008464068104908400E494860084693
:1011100000680E4908400B4908600846006820F442
:10112000802008600846406820F4FE0048604FF4C4
:101130001F008860FFF76AFF4FF0006004490860F5
:1011400010BD0000001002400000FFF8FFFFF6FE97
:1011500008ED00E000B51D48008800F0010048B32C
:10116000FFF7F2F81A481B49096850F821001A499C
:101170000968884219D10020FFF7DAFE1748006895
:1011800010B10120FFF7D4FE14480068022802D3F2
:101190000220FFF7CDFE11480068032802D3032088
:1011A000FFF7C6FE00200C4908600B480068401C91
:1011B00009490860FFF70AFFFFF7F8FE03480088B7
:1011C00020F001000149088000BD0000102C014002
:1011D0000000002090000020940000201800002053
:1011E0000848008800F0010058B10648008820F047
:1011F0000100044908800448006880F001000249A9
:10120000086070471004004038000020084800883B
:1012100000F0010058B10648008820F001000449A0
:1012200008800448006880F0100002490860704798
:10123000100800400C0801400C48008800F0010034
:1012400098B10A48008820F0010008490880074842
:101250001038008820F00100044910390880044843
:10126000008820F00100024908807047100C0040FF
:10127000000800400FB4084B10B504A902AA039857
:1012800000F01CF8044602A9002000F0C1F8204636
:1012900010BC5DF814FB00001114000802E008C83F
:1012A000121F08C1002AFAD170477047002001E0E0
:1012B00001C1121F002AFBD1704700002DE9FF4F2A
:1012C00089B09B460446002506E025280BD05A46E7
:1012D0000B999047641C6D1C20780028F5D10DB047
:1012E0002846BDE8F08F0027B8460122474900E0B4
:1012F000074314F8013F203B02FA03F00842F7D1FC
:1013000020782E2819D114F8010F47F004072A2855
:101310000ED06FF02F022078A0F1300109290CD8EF
:1013200008EB880102EB410100EB0108641CF2E7C5
:101330000A98641C50F8048B0A9020780028CED0BC
:10134000642808D0692806D075281ED05A460B9903
:1013500090476D1C58E00A994FF00A0901C90A919B
:10136000002802DA40422D2102E0390504D52B2164
:101370008DF82010012103E0F90704D02021F7E7C0
:101380008A4608AE0DE00021FAE70A994FF00A09F3
:1013900001C90A91F7E74946FEF7E6FE303106F843
:1013A000011D0028F7D1ADEB060000F120097807F8
:1013B00001D44FF00108C84502DDA8EB090000E0A8
:1013C00000208046002706E008A85A46C05D0B9919
:1013D00090476D1C7F1C5745F6DB04E030205A46D1
:1013E0000B9990476D1CB8F10001A8F10108F5DCDC
:1013F00005E016F8010B5A460B9990476D1CB9F1A0
:101400000001A9F10109F4DC641C65E70928010069
:101410000A68531C0B601070704700003E4800685B
:1014200040F480704FF0E021C1F804013B4840696E
:101430004FF2FF0108403A4908600846006840F44E
:10144000C060364948613748006840F480403549FB
:10145000086034480830006840F480403149083161
:1014600008602E4840694FF60F7108402C4908600B
:101470000846006840F06000284948612948006833
:1014800040F400502749086026480830006840F4BE
:1014900000502449083108604FF0E020D0F80001E6
:1014A00040F400704FF0E021C1F800011B48806853
:1014B000C0F30B001A4908600846006840F4405029
:1014C000164988601748006840F008001549086010
:1014D00014480830006840F00800124908310860DC
:1014E0000E484069C0F30B000D49086008460068CB
:1014F00040F4C040094948610A48006840F400408F
:101500000849086007480830006840F40040054971
:10151000083108607047000004E100E0000001406D
:101520002C000020000401404FF47A503F4908800D
:101530002D20091F08803D482038008840F0010018
:101540003A492039088039482C38008840F0010099
:1015500036492C3908803648006840F000704FF05A
:10156000E021C1F800014FF47A603249088040F66A
:10157000CA00091F08802F482038008840F0010069
:101580002C49203908802B482C38008840F0010075
:1015900028492C3908804FF0E020D0F8000140F0B5
:1015A00000502349086042F22830234908800E2069
:1015B000091F088020482C38008840F001001E498F
:1015C0002C3908801C482038008840F001001A4956
:1015D000203908804FF0E020D0F8000140F0804032
:1015E000134908604FF47A401449088040F25230A1
:1015F000091F088011482C38008840F001000F496D
:101600002C3908800D482038008840F001000B4933
:10161000203908804FF0E020D0F8040140F4802009
:101620004FF0E021C1F80401704700002C2C01406C
:1016300000E100E02C0400402C0800402C0C00408D
:101640000949096842F21072B1FBF2F1484305E022
:1016500000BF00BF00BF00BF00BF00BF011EA0F160
:101660000100F5D170470000B400002008B53348F0
:1016700000680A303249096888425DDD2F480168F8
:101680002F4800680A30814256DA2E4800680A3036
:101690002D49096888424FDD2A4801682A480068B8
:1016A0000A30814248DA29480068401C274908600E
:1016B00027480068401C264908600020254908602A
:1016C000FEF77AFD214824A102682448FFF7D2FDE5
:1016D0002348008840F00100214908802048243038
:1016E00000881F49243108801E48008840F001000E
:1016F0001C4908801B48243000881A49243108807E
:1017000019480A231A4600900F4801680C480068DF
:10171000FEF748FF1548006809490860144800684A
:101720000949086013480A231A46009008460168D0
:1017300003480068FEF736FF08BD00007400002073
:101740006C000020780000207000002018000020AD
:10175000900000209400002025640000100000206C
:1017600000080040000C00404022000864000020F7
:10177000680000207821000808B52C4800682C4932
:101780000968884205D12B4800682B4909688842BE
:1017900023D02648406826490968884205D1254853
:1017A000406825490968884217D020488068204948
:1017B0000968884205D11F4880681F490968884226
:1017C0000BD01A48C0681A49096888422CD11948B8
:1017D000C06819490968884226D118480068401C29
:1017E00016490860084616A102681648FFF742FD30
:1017F00015480A231A4600900F4801680C480068F3
:10180000FEF7D0FE114800680949086010480068DA
:10181000094908600F480A231A46009008460168E3
:1018200003480068FEF7BEFE08BD0000C8000020A7
:101830006C000020D8000020700000202400002050
:10184000256400001C0000204022000864000020E5
:10185000680000207821000808B5C748C7A10268C1
:10186000C748FFF707FDC748C4A10268C648FFF78D
:1018700001FDFEF791FF0020FFF7A8FA4FF6FF7079
:10188000FFF7B4FAFEF770FEA020C04908600846D2
:101890000068BF4908607320BE49086008460068B8
:1018A000BD490860C820BD4908603220BC490860B5
:1018B000BC480A231A460090B6480168B34800683D
:1018C000FEF770FEB8480A231A460090B448016833
:1018D000B2480068FEF766FE0120FEF747FFFEF7FC
:1018E00017FEFFF7E1FAFFF71FFEFFF797FD41E153
:1018F000AE48FFF773FA4FF6FF70FFF777FAACA226
:1019000000210520FEF7FEFEADA200217820FEF7A3
:10191000F9FEAFA20021E620FEF7F4FE4FF4A0721C
:101920000D210020FEF7D0FE954A00215A20FEF737
:10193000E9FE954A0021C820FEF7E4FEA8480068A9
:1019400020B9FEF739FC0120A54908600020A5490F
:1019500008605EE0A4480068A2490968884253D341
:10196000A248A049096850F82100A1499D4A12687F
:1019700051F8221088420BD19E489A49096850F8C4
:1019800021009D49974A126851F8221088423BD0A5
:101990009A48984A934B00901B6852F82310934A38
:1019A000904B1B6852F823000A231A46FEF7FAFDF3
:1019B0008C48006800EBC00101EB0010904901EB7E
:1019C000C0008D4A874B00901B6852F82310884A4C
:1019D000844B1B6852F823000A231A46FEF7E2FDE7
:1019E00083488049096850F8210080497D4A12687F
:1019F00041F8220080487B49096850F821007D4960
:101A0000784A126841F8220076480068401C7549FF
:101A100008607448006804289CD15D4800685B49F0
:101A20000968884205D15C4800685A4909688842BB
:101A300013D072480A231A46009057480168544848
:101A40000068FEF7AFFDFEF7E1FC50480068504922
:101A500008605048006850490860FEF7EDFBFFF74A
:101A600005FEFFF789FE67480078012828D1FEF7B8
:101A70007BFD21E04FF6FF70FFF7B8F962A250211D
:101A80004A20FEF73FFE68A296215520FEF73AFE57
:101A9000AC224B214620FEF717FEAC22A2214620A5
:101AA000FEF712FE57224B214620FEF741FE572239
:101AB0004B21F220FEF73CFE524800780128D9D095
:101AC0002D480068042828D1FEF74EFD21E04FF68E
:101AD000FF70FFF78BF95BA250210846FEF712FE5C
:101AE0005FA296215520FEF70DFEA2224B2108464B
:101AF000FEF7EAFDA22211464B20FEF7E5FD572234
:101B00004B210846FEF714FE57224B21ED20FEF72D
:101B10000FFE194800680428D9D01A480068042824
:101B200028D1FEF721FD21E04FF6FF70FFF75EF9A7
:101B300052A250215A20FEF7E5FD49A296215520D8
:101B4000FEF7E0FD98224B215020FEF7BDFD9822C4
:101B5000A3215020FEF7B8FD58224B215020FEF75C
:101B6000E7FD58224B21E820FEF7E2FD054800681A
:101B70000428D9D0BCE6000018000020256400002D
:101B800010000020240000201C0000207400002011
:101B90007C00002078000020800000206C000020E5
:101BA00070000020C81C000878210008A83E00082A
:101BB000506C617965722073636F7265203A000022
:101BC00047686F73742073636F7265203A0000007A
:101BD0005075636B4D616E203A20414720414400AF
:101BE000280000204000002084000020E8000020A1
:101BF000C8000020F8000020D8000020901D000838
:101C0000082300083C00002047616D65204F766581
:101C1000722C20796F752068697420612067686F65
:101C20007374202100000000507265737320726588
:101C300073657420746F2074727920616761696EB6
:101C400000000000436F6E67726174756C617469A7
:101C50006F6E732C20796F752077696E20210000DC
:101C6000507265737320524553455420746F20742D
:101C7000727920616761696E0000000047686F73C8
:101C800074732077696E2C20796F75206C6F6F7379
:101C9000652021004FF0D840408870474FF0D84170
:101CA000088070474FF0D841488070474FF0D841C6
:101CB0004880704770B505460C462846FFF7EEFF92
:101CC0002046FFF7EFFF70BD00000000000000009D
:101CD0000000000000000000000000000000000004
:101CE0000000E0FFE0FFE0FFE0FF00000000000078
:101CF00000000000E0FFE0FFE0FFE0FFE0FFE0FFAA
:101D0000000000000000E0FFE0FFE0FFE0FFE0FF78
:101D1000E0FFE0FFE0FF00000000E0FFE0FFE0FF89
:101D2000E0FFE0FFE0FFE0FFE0FF00000000E0FF79
:101D3000E0FFE0FFE0FFE0FFE0FFE0FFE0FF00008A
:101D40000000E0FFE0FFE0FFE0FFE0FFE0FFE0FF7A
:101D5000E0FF000000000000E0FFE0FFE0FFE0FF28
:101D6000E0FFE0FF00000000000000000000E0FFD6
:101D7000E0FFE0FFE0FF00000000000000000000C6
:101D80000000000000000000000000000000000053
:101D90000000000000000000000000000000000043
:101DA0000000000000000000000000000000000033
:101DB0000000000000000000000000000000000023
:101DC0000000000000000000000000000000000013
:101DD0000000000000000000000000000000000003
:101DE00000000000000000000000000000000000F3
:101DF00000000000000000000000000000000000E3
:101E000000000000000000000000000000000000D2
:101E100000000000000000000000000000000000C2
:101E200000000000000000000000000000000000B2
:101E300000000000000000000000000000000000A2
:101E40000000000000000000000000000000000092
:101E50000000000000000000000000000000000082
:101E60000000000000000000000000000000000072
:101E70000000E0FFE0FFE0FFE0FF000000000000E6
:101E800000000000E0FFE0FFE0FFE0FFE0FFE0FF18
:101E9000000000000000000000000000E0FFE0FF84
:101EA000E0FFE0FFE0FF0000000000000000000095
:101EB0000000E0FFE0FFE0FFE0FF000000000000A6
:101EC000000000000000E0FFE0FFE0FFE0FF000096
:101ED0000000000000000000E0FFE0FFE0FFE0FF86
:101EE000E0FF000000000000E0FFE0FFE0FFE0FF97
:101EF000E0FFE0FF00000000000000000000E0FF45
:101F0000E0FFE0FFE0FF0000000000000000000034
:101F100000000000000000000000000000000000C1
:101F200000000000000000000000000000000000B1
:101F300000000000000000000000E0FFE0FFE0FF04
:101F4000E0FF00000000000000000000E0FFE0FFF4
:101F5000E0FFE0FFE0FFE0FF000000000000E0FF26
:101F6000E0FFE0FFE0FFE0FF0000000000000000F5
:101F70000000E0FFE0FFE0FFE0FF000000000000E5
:101F8000000000000000E0FFE0FFE0FFE0FF0000D5
:101F900000000000000000000000E0FFE0FFE0FFA4
:101FA000E0FFE0FF00000000000000000000000073
:101FB000E0FFE0FFE0FFE0FFE0FFE0FF00000000E7
:101FC000000000000000E0FFE0FFE0FFE0FF000095
:101FD0000000000000000000000000000000000001
:101FE00000000000000000000000000000000000F1
:101FF00000000000000000000000000000000000E1
:102000000000E0FFE0FFE0FFE0FF00000000000054
:1020100000000000E0FFE0FFE0FFE0FFE0FFE0FF86
:10202000000000000000E0FFE0FFE0FFE0FFE0FF55
:10203000E0FFE0FFE0FF00000000E0FFE0FFE0FF66
:10204000E0FFE0FFE0FFE0FFE0FF00000000E0FF56
:10205000E0FFE0FF00000000E0FFE0FFE0FF000025
:102060000000E0FFE0FF0000000000000000E0FFD3
:10207000E0FF000000000000E0FF000000000000A2
:102080000000E0FF00000000000000000000000071
:102090000000000000000000000000000000000040
:1020A0000000000000000000000000000000000030
:1020B0000000000000000000000000000000000020
:1020C0000000000000000000000000000000000010
:1020D000000000000000000000000000E0FF000021
:1020E000000000000000E0FF000000000000E0FF32
:1020F000E0FF0000000000000000E0FFE0FF000043
:102100000000E0FFE0FFE0FF00000000E0FFE0FF74
:10211000E0FF00000000E0FFE0FFE0FFE0FFE0FF85
:10212000E0FFE0FFE0FF00000000E0FFE0FFE0FF75
:10213000E0FFE0FFE0FFE0FFE0FF00000000000044
:10214000E0FFE0FFE0FFE0FFE0FFE0FF0000000055
:10215000000000000000E0FFE0FFE0FFE0FF000003
:10216000000000000000000000000000000000006F
:10217000000000000000000000000000000000005F
:10218000000000000000000000000000000000004F
:1021900000F800F80000000000000000000000004F
:1021A000000000F800F800F800F800F800F800005F
:1021B00000000000000000F800F800F800F800F847
:1021C00000F800F8000000000000000000F800F82F
:1021D00000F800F800F800F800000000000000001F
:1021E000E0070000000000F800F800000000000018
:1021F00000000000E00700000000E0070000000011
:1022000000000000000000000000E0070000E00700
:10221000E007E007E0070000000000000000000009
:10222000E007E007E007E007000000000000000012
:10223000000000000000000000000000000000009E
:10224000000000000000000000000000000000008E
:10225000000000000000000000000000000000007E
:10226000000000000000000000000000000000006E
:10227000000000000000000000000000000000005E
:10228000000000000000000000000000000000004E
:10229000000000000000000000000000000000003E
:1022A000000000000000000000000000000000002E
:1022B000000000000000000000000000000000001E
:1022C000000000000000000000000000000000000E
:1022D00000000000000000000000000000000000FE
:1022E00000000000000000000000000000000000EE
:1022F00000000000000000000000000000000000DE
:1023000000000000000000000000000000000000CD
:10231000000000000000000000000000000000F8C5
:102320000000000000F800F80000000000F80000C5
:10233000000000F800F8000000F800F8000000F8C5
:1023400000F80000000000F800F800F800F800F8BD
:1023500000F800F800F80000000000F800F800F8AD
:1023600000F800F800F800F800F80000000000F89D
:1023700000F81F0000F800F81F0000F800F8000047
:10238000000000F800F8FFFF00F800F8FFFF00F879
:1023900000F800000000000000F800F800F800F865
:1023A00000F800F80000000000000000000000F845
:1023B00000F800F800F80000000000000000000035
:1023C000000000000000000000000000000000000D
:1023D00000000000000000000000000000000000FD
:1023E0000000000000000F78000000000F780F7858
:1023F000000000000F78000000000F780F78000048
:102400000F780F7800000F780F78000000000F7829
:102410000F780F780F780F780F780F780F7800000B
:1024200000000F780F780F780F780F780F780F78FB
:102430000F78000000000F780F7800F80F780F7801
:1024400000F80F780F78000000000F780F78FFFF7A
:102450000F780F78FFFF0F780F7800000000000062
:102460000F780F780F780F780F780F780000000042
:102470000000000000000F780F780F780F78000040
:10248000000000000000000000000000000000004C
:10249000000000000000000000000000000000003C
:1024A00000000000000000000000000000001F000D
:1024B000000000001F001F00000000001F000000BF
:1024C00000001F001F0000001F001F0000001F0071
:1024D0001F00000000001F001F001F001F001F0042
:1024E0001F001F001F00000000001F001F001F0032
:1024F0001F001F001F001F001F00000000001F0022
:102500001F0000F81F001F0000F81F001F00000040
:1025100000001F001F00FFFF1F001F00FFFF1F0024
:102520001F000000000000001F001F001F001F0010
:102530001F001F00000000000000000000001F003E
:102540001F001F001F00000000000000000000002E
:10255000000000000000000000000000000000007B
:10256000000000000000000000000000000000006B
:10257000000000000000E0FF00000000E0FFE0FFBE
:1025800000000000E0FF00000000E0FFE0FF0000AE
:10259000E0FFE0FF0000E0FFE0FF00000000E0FFE0
:1025A000E0FFE0FFE0FFE0FFE0FFE0FFE0FF000012
:1025B0000000E0FFE0FFE0FFE0FFE0FFE0FFE0FF02
:1025C000E0FF00000000E0FFE0FF1F00E0FFE0FF91
:1025D0001F00E0FFE0FF00000000E0FFE0FFFFFF62
:1025E000E0FFE0FFFFFFE0FFE0FF00000000000071
:1025F000E0FFE0FFE0FFE0FFE0FFE0FF00000000A1
:10260000000000000000E0FFE0FFE0FFE0FF00004E
:1026100000000000000000000000000000000000BA
:1026200000000000000000000000000000000000AA
:1026300004040404040004000A0A0A000000000064
:102640000A0A1F0A1F0A0A00041E050E140F0400BE
:1026500003130804021918000205050215091600E3
:102660000C0C04020000000008040202020408002E
:1026700002040808080402000004150E0E150400E8
:102680000004041F04040000000000000C0C0402FD
:102690000000001F0000000000000000000C0C0003
:1026A00000100804020100000E11131519110E008C
:1026B0000406040404040E000E11100E01011F0094
:1026C0001F10080C10110E00080C0A091F08080042
:1026D0001F010F1010110E001C02010F11110E002E
:1026E0001F101008040201000E11110E11110E002E
:1026F0000E11111E10080700000004000400000065
:102700000000040004040200100804020408100081
:1027100000001F001F00000002040810080402004F
:102720000E11100C040004000E11151D0D011E00E9
:10273000040A11111F1111000F11110F11110F00B7
:102740000E11010101110E000F11111111110F00D5
:102750001F01010F01011F001F01010F01010100F5
:102760001E11010119111E001111111F111111006B
:102770000E04040404040E001C08080808090600DE
:1027800011090503050911000101010101011F00E3
:10279000111B151515111100111113151911110027
:1027A0000E11111111110E000F11110F0101010075
:1027B0000E111111150916000F11110F0509110045
:1027C0000E11010E10110E001F1504040404040064
:1027D0001111111111110E0011111111110A040022
:1027E0001111111515150A0011110A040A11110011
:1027F00011110A04040404001F10080E02011F0036
:102800001E02020202021E00000102040810000063
:102810001E10101010101E00040A1100000000000D
:102820000000000000001F00060604080000000071
:10283000000006080E091E0001010D1311130D0002
:1028400000000E1101110E001010161911191600BA
:1028500000000E111F010E000814040E04040400F1
:1028600000000E191916100E01010D13111111009F
:102870000400060404040E00080008080809060005
:1028800001010905030509000604040404040E00FF
:1028900000000B151515150000000D131111110086
:1028A00000000E1111110E0000000D13130D010197
:1028B000000016191916101000000D130101010077
:1028C00000001E010E100F0004041F040414080071
:1028D000000011111119160000001111110A040055
:1028E0000000111115150A000000110A040A110058
:1028F000000011111E10110E00001F0804021F001D
:10290000080404020404080004040400040404008D
:10291000020404080404020002150800000000007C
:10292000000000000000000000000C12120C00006B
:1029300000000C1E1E0C000000001E12121E0000E3
:1029400000001E1E1E1E000000000C0C121E0000C7
:1029500000000C0C1E1E000000001E120C0C0000DB
:1029600000001E1E0C0C00000000181616180000B7
:102970000000181E1E1800000000061A1A060000AB
:102980000000061E1E06000000000C12120C0000C3
:1029900000000C1E1E0C000000001E12121E000083
:1029A00000001E1E1E1E00000000000000000000AF
:1029B0000000000000000000000000000000000017
:1029C0000000000000000000000000000000000007
:1029D0000000000000000000000080018001800174
:1029E00080018001800180018001800180018001DF
:1029F00080018001000000008001800100000000D3
:102A0000000000000000000000000000CC00CC002E
:102A1000CC00CC00CC00CC00000000000000000086
:102A200000000000000000000000000000000000A6
:102A30000000000000000000000000000000000096
:102A400000000000600C600C600C30063006FE1FB9
:102A5000FE1F300638071803FE1FFE1F1803180359
:102A60008C018C018C01000000008000E003F80F55
:102A70009C0E8C1C8C188C009800F801E007800ECE
:102A8000801C8C188C189C18B80CF00FE003800088
:102A900080000000000000000000000000000E1890
:102AA0001B0C110C11061106110311039B018E0161
:102AB000C038C06C60446044304430441844186CE2
:102AC0000C380000000000000000E001F0033807AF
:102AD000180618063003F001F000F8009C310E33A0
:102AE000061E061C061C063FFC73F02100000000B9
:102AF0000000000000000000000000000C000C00BE
:102B00000C000C000C000C00000000000000000095
:102B100000000000000000000000000000000000B5
:102B2000000000000000000000000002000380011F
:102B3000C000C00060006000300030003000300095
:102B4000300030003000300060006000C000C00085
:102B50008001000300020000000020006000C000AF
:102B60008001800100030003000600060006000645
:102B70000006000600060006000300038001800135
:102B8000C000600020000000000000000000000005
:102B900000000000C000C000D806F807E0013003C4
:102BA00038070000000000000000000000000000E6
:102BB0000000000000000000000000000000000015
:102BC0000000000080018001800180018001FC3F45
:102BD000FC3F800180018001800180010000000035
:102BE00000000000000000000000000000000000E5
:102BF00000000000000000000000000000000000D5
:102C000000000000000000000000800180010001C1
:102C10000001800000000000000000000000000033
:102C200000000000000000000000000000000000A4
:102C3000E007E007000000000000000000000000C6
:102C40000000000000000000000000000000000084
:102C50000000000000000000000000000000000074
:102C600000000000000000000000C000C0000000E4
:102C700000000000000000000000000C000C000636
:102C800000060006000300030003800380018001AA
:102C90008001C000C000C0006000600000000000B3
:102CA00000000000000000000000E003F007380E04
:102CB000180C0C180C180C180C180C180C180C18F4
:102CC0000C180C18180C380EF007E0030000000078
:102CD0000000000000000000000000018001C001B1
:102CE000F00198018801800180018001800180014C
:102CF00080018001800180018001800100000000CE
:102D000000000000000000000000E003F80F180CB5
:102D10000C180C1800180018000C000600038001A5
:102D2000C000600030001800FC1FFC1F0000000005
:102D300000000000000000000000E001F807180E8D
:102D40000C0C0C0C000C0006C003C007000C001893
:102D500000180C180C18180CF807E003000000000D
:102D600000000000000000000000000C000E000F3A
:102D7000000F800DC00C600C600C300C180C0C0C9B
:102D8000FC3FFC3F000C000C000C000C000000009D
:102D900000000000000000000000F80FF80F18000D
:102DA00018000C00EC03FC071C0E001C0018001897
:102DB00000180C181C0C180EF807E00300000000A7
:102DC00000000000000000000000C007F00F381CE9
:102DD000181818000C00CC03EC0F3C0E1C1C0C182F
:102DE0000C180C18181C380EF007E0030000000047
:102DF00000000000000000000000FC1FFC1F000C91
:102E000000060006000380038001C001C000E0004E
:102E100060006000700030003000300000000000F2
:102E200000000000000000000000E003F007380E82
:102E3000180C180C180C3806F007F007180C0C18B2
:102E40000C180C180C18380CF80FE00300000000E8
:102E500000000000000000000000E003F007380E52
:102E60001C0C0C180C180C181C1C381EF81BE01934
:102E70000018000C000C1C0EF807F0010000000008
:102E80000000000000000000000000000000000042
:102E90000000000080018001000000000000000030
:102EA0000000000000000000800180010000000020
:102EB0000000000000000000000000000000000012
:102EC0000000000080018001000000000000000000
:102ED00000000000000000008001800100010001EE
:102EE0008000000000000000000000000000000062
:102EF00000000000000000000010001C800FE00334
:102F0000F8001800F800E003800F001C001000001B
:102F100000000000000000000000000000000000B1
:102F20000000000000000000F81F0000000000008A
:102F3000F81F00000000000000000000000000007A
:102F40000000000000000000000000000000000081
:102F5000000000000000000008003800F001C00779
:102F6000001F0018001FC007F00138000800000013
:102F700000000000000000000000E003F80F180C43
:102F80000C180C180018000C000600038001C0008B
:102F9000C000C00000000000C000C0000000000031
:102FA000000000000000000000000000E00718180A
:102FB0000420C229224A114409440944094409222F
:102FC0001113E20C024004201818E0070000000072
:102FD0000000000000000000000080038003C00625
:102FE000C006C006600C600C301830183018F83F6E
:102FF000F83F1C700C600C6006C006C000000000AA
:1030000000000000000000000000FC03FC0F0C0C9E
:103010000C180C180C180C0CFC07FC0F0C180C30BE
:103020000C300C300C300C18FC1FFC0700000000AA
:1030300000000000000000000000C007F01F38384A
:103040001C300C7006600600060006000600060034
:10305000060006600C701C30F01FE0070000000046
:1030600000000000000000000000FE03FE0F060E3E
:1030700006180618063006300630063006300630D0
:10308000063006180618060EFE0FFE0300000000AC
:1030900000000000000000000000FC3FFC3F0C00AE
:1030A0000C000C000C000C00FC1FFC1F0C000C00A2
:1030B0000C000C000C000C00FC3FFC3F000000006A
:1030C00000000000000000000000F83FF83F18007A
:1030D0001800180018001800F81FF81F1800180032
:1030E0001800180018001800180018000000000050
:1030F00000000000000000000000E00FF83F3C78F6
:103100000E6006E007C00300030003FE03FE03C0D9
:1031100007C006C00EC03CF0F83FE00F0000000002
:10312000000000000000000000000C300C300C30EB
:103130000C300C300C300C30FC3FFC3F0C300C30B1
:103140000C300C300C300C300C300C300000000017
:1031500000000000000000000000800180018001EC
:103160008001800180018001800180018001800157
:103170008001800180018001800180010000000049
:10318000000000000000000000000006000600062D
:1031900000060006000600060006000600060006FF
:1031A0000006180618063807F003E00100000000CA
:1031B0000000000000000000000006300618060CA9
:1031C000060606038601C60066007600DE008E0154
:1031D00006030606060C061806300660000000000E
:1031E0000000000000000000000018001800180097
:1031F000180018001800180018001800180018000F
:103200001800180018001800F81FF81F0000000030
:10321000000000000000000000000EE01EF01EF0A4
:103220001EF036D836D836D836D866CC66CC66CCC2
:10323000C6C6C6C6C6C6C6C686C386C300000000CC
:10324000000000000000000000000C301C303C308A
:103250003C306C306C30CC30CC308C310C330C3397
:103260000C360C360C3C0C3C0C380C3000000000CA
:1032700000000000000000000000E007F81F1C38FC
:103280000E70066003C003C003C003C003C003C0C8
:1032900003C006600E701C38F81FE0070000000035
:1032A00000000000000000000000FC0FFC1F0C38B4
:1032B0000C300C300C300C300C18FC1FFC070C00D0
:1032C0000C000C000C000C000C000C0000000000B6
:1032D00000000000000000000000E007F81F1C389C
:1032E0000E70066003E003C003C003C003C003C048
:1032F00007E006630E3F1C3CF83FE0F700C000000B
:1033000000000000000000000000FE0FFE1F063855
:103310000630063006300638FE1FFE070603060696
:10332000060C06180618063006300660000000007D
:1033300000000000000000000000E003F80F1C0C7B
:103340000C180C180C001C00F803E00F001E0038CD
:10335000063006300E301C1CF80FE007000000009D
:1033600000000000000000000000FE7FFE7F8001E2
:103370008001800180018001800180018001800145
:103380008001800180018001800180010000000037
:10339000000000000000000000000C300C300C3079
:1033A0000C300C300C300C300C300C300C300C303D
:1033B0000C300C300C301818F81FE007000000002B
:1033C000000000000000000000000360063006302E
:1033D00006300C180C180C18180C180C380E300687
:1033E0003006700760036003C001C00100000000E8
:1033F000000000000000000000000360C361C36122
:10340000C3616633663366336633663366336C1B7B
:103410006C1B6C1B2C1A3C1E380E380E0000000072
:10342000000000000000000000000FE00C701830E9
:103430003018700C600EC00780038003C003E006E4
:10344000700C301C18180C300E6007E000000000F3
:103450000000000000000000000003C006600C3007
:103460001C383818300C6006E007C003800180016A
:103470008001800180018001800180010000000046
:1034800000000000000000000000FC7FFC7F0060E6
:1034900000300018000C000600038001C00060002E
:1034A000300018000C000600FE7FFE7F00000000C8
:1034B00000000000000000000000E003E0036000E6
:1034C00060006000600060006000600060006000FC
:1034D00060006000600060006000600060006000EC
:1034E0006000E003E00300000000300030006000F6
:1034F00060006000C000C000C000C0018001800109
:103500008001000300030003000600060000000025
:1035100000000000000000000000E003E0030003E2
:103520000003000300030003000300030003000383
:103530000003000300030003000300030003000373
:103540000003E003E003000000000000C001C00130
:1035500060036003600330063006180C180C00008E
:10356000000000000000000000000000000000005B
:10357000000000000000000000000000000000004B
:10358000000000000000000000000000000000003B
:1035900000000000000000000000FFFFFFFF00002F
:1035A000000000000000000000000C000C000C00F7
:1035B0000C000C000C0000000000000000000000E7
:1035C00000000000000000000000000000000000FB
:1035D00000000000000000000000000000000000EB
:1035E00000000000F003F8071C0C0C0C000FF00F9B
:1035F000F80C0C0C0C0C1C0FF80FF018000000005D
:103600000000000000000000000018001800180072
:1036100018001800D803F80F380C181818181818C4
:10362000181818181818380CF80FD80300000000E4
:10363000000000000000000000000000000000008A
:1036400000000000C003F007300E180C180018002E
:1036500018001800180C300EF007C003000000001E
:103660000000000000000000000000180018001812
:1036700000180018C01BF01F301C18181818181854
:10368000181818181818301CF01FC01B0000000074
:10369000000000000000000000000000000000002A
:1036A00000000000C003F00F300C1818F81FF81FBE
:1036B000180018003818301CF00FC0070000000078
:1036C00000000000000000000000800FC00FC000DC
:1036D000C000C000F007F007C000C000C000C0007C
:1036E000C000C000C000C000C000C000000000005A
:1036F00000000000000000000000000000000000CA
:1037000000000000E00DF80F180E0C0C0C0C0C0C57
:103710000C0C0C0C0C0C180EF80FE00D000C0C0C23
:103720001C06F807F001000000001800180018003F
:1037300018001800D807F80F381C1818181818188F
:103740001818181818181818181818180000000059
:1037500000000000000000000000C000C0000000E9
:1037600000000000C000C000C000C000C000C000D9
:10377000C000C000C000C000C000C00000000000C9
:1037800000000000000000000000C000C0000000B9
:1037900000000000C000C000C000C000C000C000A9
:1037A000C000C000C000C000C000C000C000C00019
:1037B000C000F8007800000000000C000C000C00B5
:1037C0000C000C000C0C0C060C038C01CC006C00E3
:1037D000FC009C018C030C030C060C0C0000000088
:1037E00000000000000000000000C000C000C00099
:1037F000C000C000C000C000C000C000C000C000C9
:10380000C000C000C000C000C000C0000000000038
:1038100000000000000000000000000000000000A8
:10382000000000007C3CFF7EC7E383C183C183C1ED
:1038300083C183C183C183C183C183C100000000F0
:103840000000000000000000000000000000000078
:10385000000000009807F80F381C181818181818DE
:103860001818181818181818181818180000000038
:103870000000000000000000000000000000000048
:1038800000000000C003F00F300C181818181818AA
:10389000181818181818300CF00FC003000000009A
:1038A0000000000000000000000000000000000018
:1038B00000000000D803F80F380C18181818181852
:1038C000181818181818380CF80FD8031800180012
:1038D00018001800180000000000000000000000A0
:1038E00000000000C01BF01F301C18181818181812
:1038F000181818181818301CF01FC01B00180018D2
:10390000001800180018000000000000000000006F
:1039100000000000B007F0037000300030003000FD
:103920003000300030003000300030000000000077
:103930000000000000000000000000000000000087
:1039400000000000E003F003380E180C3800F0030C
:10395000C007000C180C380EF007E0030000000050
:103960000000000000000000000000008000C00017
:10397000C000C000F007F007C000C000C000C000D9
:10398000C000C000C000C000C007800700000000E9
:103990000000000000000000000000000000000027
:1039A00000000000181818181818181818181818F7
:1039B000181818181818381CF01FE019000000001B
:1039C00000000000000000000000000000000000F7
:1039D000000000000C18180C180C180C30063006EB
:1039E0003006600360036003C001C00100000000F6
:1039F00000000000000000000000000000000000C7
:103A000000000000C141C141C3616363636363633C
:103A10003636363636361C1C1C1C1C1C00000000BA
:103A20000000000000000000000000000000000096
:103A3000000000001C38381C300C6006C003C003B6
:103A4000C003C0036006300C381C1C3800000000A6
:103A50000000000000000000000000000000000066
:103A6000000000001830301830187018600C600C1E
:103A7000E00CC006C0068003800380038001800143
:103A8000C001F00070000000000000000000000015
:103A900000000000FC1FFC1F000C0006000380015A
:103AA000C000600030001800FC1FFC1F0000000078
:103AB0000000000000000000000000038001C000C2
:103AC000C000C000C000C000C00060006000300046
:103AD00060004000C000C000C000C000C000C000C6
:103AE00080010003000000000000800180018001CF
:103AF00080018001800180018001800180018001BE
:103B000080018001800180018001800180018001AD
:103B1000800180018001000000006000C000C00141
:103B20008001800180018001800100030003000604
:103B3000000300018001800180018001800180017B
:103B4000C000600000000000000000000000000055
:103B50000000000000000000F010F81F080F000037
:103B60000000000000000000000000000000000055
:103B70000000000000000000000000000000000045
:103B80000000000000000000000000000000000035
:103B90000000000000000000000000000000000025
:103BA0000000000000000000000000000000000015
:103BB0000000C003300C0810042004200240024022
:103BC000024002400240042004200810300CC003D0
:103BD00000000000000000000000000000000000E5
:103BE0000000C003F00FF81FFC3FFC3FFE7FFE7F8C
:103BF000FE7FFE7FFE7FFC3FFC3FF81FF00FC003FF
:103C000000000000000000000000000000000000B4
:103C1000000000000000E007F00F1818181818182E
:103C2000181818181818F00FE0070000000000001E
:103C30000000000000000000000000000000000084
:103C4000000000000000E007F00FF81FF81FF81F49
:103C5000F81FF81FF81FF00FE00700000000000039
:103C60000000000000000000000000000000000054
:103C70000000000000000000000000000000000044
:103C80008001C0036006300C18181818F81FF81FC0
:103C90000000000000000000000000000000000024
:103CA0000000000000000000000000000000000014
:103CB0008001C003E007F00FF81FF81FF81FF81F7E
:103CC00000000000000000000000000000000000F4
:103CD000F81FF81F18181818300C6006C003800170
:103CE00000000000000000000000000000000000D4
:103CF00000000000000000000000000000000000C4
:103D0000F81FF81FF81FF81FF00FE007C00380012D
:103D100000000000000000000000000000000000A3
:103D20000000000000000000000000000000000093
:103D3000000000000000E001F00198018C01860104
:103D400086018C019801F001E001000000000000F4
:103D50000000000000000000000000000000000063
:103D6000000000000000E001F001F801FC01FE018C
:103D7000FE01FC01F801F001E0010000000000007C
:103D80000000000000000000000000000000000033
:103D90000000000000008007800F801980318061E2
:103DA000806180318019800F8007000000000000D2
:103DB0000000000000000000000000000000000003
:103DC0000000000000008007800F801F803F807F80
:103DD000807F803F801F800F800700000000000070
:103DE00000000000000000000000C00120022002CE
:103DF00040013006080808080808080808080808EC
:103E000008082002200220022002200220022002B4
:103E100020022002200200000000C001E003E003B5
:103E2000C001F007D80DD80DD80DD80DD80DD80D7C
:103E3000D80D6003600360036003600360036003E8
:103E400060036003600300000000C0012002200244
:103E50004001300608080808080804100220022063
:103E60004001200220021004080808080410041071
:103E700004200440000000000000C001E003E00353
:103E8000C001F007D80DD80DD80DCC19C631C261CC
:103E9000C001600360037006380C180C0C180C1875
:103EA0000C300C600000000006000800200000003C
:103EB00070000000282600081000180020000000F4
:103EC00070000000A8290008E83E0008000000205B
:103ED000C80000009C120008B03F0008C800002085
:103EE00040040000AC1200080800000004000000BC
:103EF00002000000010000000000000000000000BF
:103F000000000000000000000000000000000000B1
:103F100000000000000000000000000000000000A1
:103F20000000000000000000000000000000000091
:103F30000000000036010000360100000E00000005
:103F4000E60000000E000000E60000000000000097
:103F50000000000000000000000000000000000061
:103F60000000000000000000000000000000000051
:103F7000000000000100000001000000000000003F
:103F80000000000000000000000000000000000031
:103F90000000FFFF000000000000000000A24A0433
:103FA00000000000000000000102030406070809E9
:0400000508000145A9
:00000001FF
